{
  "_format": "hh-sol-artifact-1",
  "contractName": "MyNFT",
  "sourceName": "contracts/MyNFT.sol",
  "abi": [
    {
      "inputs": [
        {
          "internalType": "uint256",
          "name": "_price",
          "type": "uint256"
        },
        {
          "internalType": "address",
          "name": "treasury",
          "type": "address"
        },
        {
          "internalType": "string",
          "name": "_uri",
          "type": "string"
        }
      ],
      "stateMutability": "nonpayable",
      "type": "constructor"
    },
    {
      "anonymous": false,
      "inputs": [
        {
          "indexed": true,
          "internalType": "address",
          "name": "owner",
          "type": "address"
        },
        {
          "indexed": true,
          "internalType": "address",
          "name": "approved",
          "type": "address"
        },
        {
          "indexed": true,
          "internalType": "uint256",
          "name": "tokenId",
          "type": "uint256"
        }
      ],
      "name": "Approval",
      "type": "event"
    },
    {
      "anonymous": false,
      "inputs": [
        {
          "indexed": true,
          "internalType": "address",
          "name": "owner",
          "type": "address"
        },
        {
          "indexed": true,
          "internalType": "address",
          "name": "operator",
          "type": "address"
        },
        {
          "indexed": false,
          "internalType": "bool",
          "name": "approved",
          "type": "bool"
        }
      ],
      "name": "ApprovalForAll",
      "type": "event"
    },
    {
      "anonymous": false,
      "inputs": [
        {
          "indexed": true,
          "internalType": "address",
          "name": "previousOwner",
          "type": "address"
        },
        {
          "indexed": true,
          "internalType": "address",
          "name": "newOwner",
          "type": "address"
        }
      ],
      "name": "OwnershipTransferred",
      "type": "event"
    },
    {
      "anonymous": false,
      "inputs": [
        {
          "indexed": true,
          "internalType": "address",
          "name": "from",
          "type": "address"
        },
        {
          "indexed": true,
          "internalType": "address",
          "name": "to",
          "type": "address"
        },
        {
          "indexed": true,
          "internalType": "uint256",
          "name": "tokenId",
          "type": "uint256"
        }
      ],
      "name": "Transfer",
      "type": "event"
    },
    {
      "inputs": [
        {
          "internalType": "address",
          "name": "minter",
          "type": "address"
        },
        {
          "internalType": "bool",
          "name": "hasMinterPermissions",
          "type": "bool"
        },
        {
          "internalType": "bool",
          "name": "isActiveMinter",
          "type": "bool"
        }
      ],
      "name": "addURIAdmin",
      "outputs": [],
      "stateMutability": "nonpayable",
      "type": "function"
    },
    {
      "inputs": [
        {
          "internalType": "address",
          "name": "to",
          "type": "address"
        },
        {
          "internalType": "uint256",
          "name": "tokenId",
          "type": "uint256"
        }
      ],
      "name": "approve",
      "outputs": [],
      "stateMutability": "nonpayable",
      "type": "function"
    },
    {
      "inputs": [
        {
          "internalType": "address",
          "name": "owner",
          "type": "address"
        }
      ],
      "name": "balanceOf",
      "outputs": [
        {
          "internalType": "uint256",
          "name": "",
          "type": "uint256"
        }
      ],
      "stateMutability": "view",
      "type": "function"
    },
    {
      "inputs": [
        {
          "internalType": "uint256",
          "name": "tokenId",
          "type": "uint256"
        }
      ],
      "name": "getApproved",
      "outputs": [
        {
          "internalType": "address",
          "name": "",
          "type": "address"
        }
      ],
      "stateMutability": "view",
      "type": "function"
    },
    {
      "inputs": [
        {
          "internalType": "address",
          "name": "owner",
          "type": "address"
        },
        {
          "internalType": "address",
          "name": "operator",
          "type": "address"
        }
      ],
      "name": "isApprovedForAll",
      "outputs": [
        {
          "internalType": "bool",
          "name": "",
          "type": "bool"
        }
      ],
      "stateMutability": "view",
      "type": "function"
    },
    {
      "inputs": [
        {
          "internalType": "address payable",
          "name": "recipient",
          "type": "address"
        }
      ],
      "name": "mintNFT",
      "outputs": [
        {
          "internalType": "uint256",
          "name": "",
          "type": "uint256"
        }
      ],
      "stateMutability": "payable",
      "type": "function"
    },
    {
      "inputs": [],
      "name": "name",
      "outputs": [
        {
          "internalType": "string",
          "name": "",
          "type": "string"
        }
      ],
      "stateMutability": "view",
      "type": "function"
    },
    {
      "inputs": [],
      "name": "owner",
      "outputs": [
        {
          "internalType": "address",
          "name": "",
          "type": "address"
        }
      ],
      "stateMutability": "view",
      "type": "function"
    },
    {
      "inputs": [
        {
          "internalType": "uint256",
          "name": "tokenId",
          "type": "uint256"
        }
      ],
      "name": "ownerOf",
      "outputs": [
        {
          "internalType": "address",
          "name": "",
          "type": "address"
        }
      ],
      "stateMutability": "view",
      "type": "function"
    },
    {
      "inputs": [],
      "name": "renounceOwnership",
      "outputs": [],
      "stateMutability": "nonpayable",
      "type": "function"
    },
    {
      "inputs": [
        {
          "internalType": "address",
          "name": "from",
          "type": "address"
        },
        {
          "internalType": "address",
          "name": "to",
          "type": "address"
        },
        {
          "internalType": "uint256",
          "name": "tokenId",
          "type": "uint256"
        }
      ],
      "name": "safeTransferFrom",
      "outputs": [],
      "stateMutability": "nonpayable",
      "type": "function"
    },
    {
      "inputs": [
        {
          "internalType": "address",
          "name": "from",
          "type": "address"
        },
        {
          "internalType": "address",
          "name": "to",
          "type": "address"
        },
        {
          "internalType": "uint256",
          "name": "tokenId",
          "type": "uint256"
        },
        {
          "internalType": "bytes",
          "name": "_data",
          "type": "bytes"
        }
      ],
      "name": "safeTransferFrom",
      "outputs": [],
      "stateMutability": "nonpayable",
      "type": "function"
    },
    {
      "inputs": [
        {
          "internalType": "address",
          "name": "operator",
          "type": "address"
        },
        {
          "internalType": "bool",
          "name": "approved",
          "type": "bool"
        }
      ],
      "name": "setApprovalForAll",
      "outputs": [],
      "stateMutability": "nonpayable",
      "type": "function"
    },
    {
      "inputs": [
        {
          "internalType": "string",
          "name": "_uri",
          "type": "string"
        }
      ],
      "name": "setTokenURI",
      "outputs": [],
      "stateMutability": "nonpayable",
      "type": "function"
    },
    {
      "inputs": [
        {
          "internalType": "bytes4",
          "name": "interfaceId",
          "type": "bytes4"
        }
      ],
      "name": "supportsInterface",
      "outputs": [
        {
          "internalType": "bool",
          "name": "",
          "type": "bool"
        }
      ],
      "stateMutability": "view",
      "type": "function"
    },
    {
      "inputs": [],
      "name": "symbol",
      "outputs": [
        {
          "internalType": "string",
          "name": "",
          "type": "string"
        }
      ],
      "stateMutability": "view",
      "type": "function"
    },
    {
      "inputs": [
        {
          "internalType": "uint256",
          "name": "tokenId",
          "type": "uint256"
        }
      ],
      "name": "tokenURI",
      "outputs": [
        {
          "internalType": "string",
          "name": "",
          "type": "string"
        }
      ],
      "stateMutability": "view",
      "type": "function"
    },
    {
      "inputs": [
        {
          "internalType": "address",
          "name": "from",
          "type": "address"
        },
        {
          "internalType": "address",
          "name": "to",
          "type": "address"
        },
        {
          "internalType": "uint256",
          "name": "tokenId",
          "type": "uint256"
        }
      ],
      "name": "transferFrom",
      "outputs": [],
      "stateMutability": "nonpayable",
      "type": "function"
    },
    {
      "inputs": [
        {
          "internalType": "address",
          "name": "newOwner",
          "type": "address"
        }
      ],
      "name": "transferOwnership",
      "outputs": [],
      "stateMutability": "nonpayable",
      "type": "function"
    }
  ],
  "bytecode": "0x60a06040523480156200001157600080fd5b5060405162003d0b38038062003d0b8339818101604052810190620000379190620005d3565b6040518060400160405280600581526020017f4d794e46540000000000000000000000000000000000000000000000000000008152506040518060400160405280600381526020017f4e465400000000000000000000000000000000000000000000000000000000008152508160009080519060200190620000bb929190620002e6565b508060019080519060200190620000d4929190620002e6565b505050620000f7620000eb6200021860201b60201c565b6200022060201b60201c565b826080818152505081600960006101000a81548173ffffffffffffffffffffffffffffffffffffffff021916908373ffffffffffffffffffffffffffffffffffffffff16021790555080600a908051906020019062000158929190620002e6565b506001600b60003373ffffffffffffffffffffffffffffffffffffffff1673ffffffffffffffffffffffffffffffffffffffff16815260200190815260200160002060000160006101000a81548160ff0219169083151502179055506001600b60003373ffffffffffffffffffffffffffffffffffffffff1673ffffffffffffffffffffffffffffffffffffffff16815260200190815260200160002060000160016101000a81548160ff021916908315150217905550505050620006b3565b600033905090565b6000600760009054906101000a900473ffffffffffffffffffffffffffffffffffffffff16905081600760006101000a81548173ffffffffffffffffffffffffffffffffffffffff021916908373ffffffffffffffffffffffffffffffffffffffff1602179055508173ffffffffffffffffffffffffffffffffffffffff168173ffffffffffffffffffffffffffffffffffffffff167f8be0079c531659141344cd1fd0a4f28419497f9722a3daafe3b4186f6b6457e060405160405180910390a35050565b828054620002f4906200067d565b90600052602060002090601f01602090048101928262000318576000855562000364565b82601f106200033357805160ff191683800117855562000364565b8280016001018555821562000364579182015b828111156200036357825182559160200191906001019062000346565b5b50905062000373919062000377565b5090565b5b808211156200039257600081600090555060010162000378565b5090565b6000604051905090565b600080fd5b600080fd5b6000819050919050565b620003bf81620003aa565b8114620003cb57600080fd5b50565b600081519050620003df81620003b4565b92915050565b600073ffffffffffffffffffffffffffffffffffffffff82169050919050565b60006200041282620003e5565b9050919050565b620004248162000405565b81146200043057600080fd5b50565b600081519050620004448162000419565b92915050565b600080fd5b600080fd5b6000601f19601f8301169050919050565b7f4e487b7100000000000000000000000000000000000000000000000000000000600052604160045260246000fd5b6200049f8262000454565b810181811067ffffffffffffffff82111715620004c157620004c062000465565b5b80604052505050565b6000620004d662000396565b9050620004e4828262000494565b919050565b600067ffffffffffffffff82111562000507576200050662000465565b5b620005128262000454565b9050602081019050919050565b60005b838110156200053f57808201518184015260208101905062000522565b838111156200054f576000848401525b50505050565b60006200056c6200056684620004e9565b620004ca565b9050828152602081018484840111156200058b576200058a6200044f565b5b620005988482856200051f565b509392505050565b600082601f830112620005b857620005b76200044a565b5b8151620005ca84826020860162000555565b91505092915050565b600080600060608486031215620005ef57620005ee620003a0565b5b6000620005ff86828701620003ce565b9350506020620006128682870162000433565b925050604084015167ffffffffffffffff811115620006365762000635620003a5565b5b6200064486828701620005a0565b9150509250925092565b7f4e487b7100000000000000000000000000000000000000000000000000000000600052602260045260246000fd5b600060028204905060018216806200069657607f821691505b60208210811415620006ad57620006ac6200064e565b5b50919050565b60805161363f620006cc6000396000505061363f6000f3fe6080604052600436106101145760003560e01c8063715018a6116100a0578063be8f939911610064578063be8f9399146103a2578063c87b56dd146103cb578063e0df5b6f14610408578063e985e9c514610431578063f2fde38b1461046e57610114565b8063715018a6146102e35780638da5cb5b146102fa57806395d89b4114610325578063a22cb46514610350578063b88d4fde1461037957610114565b806323b872dd116100e757806323b872dd146101e757806342842e0e1461021057806354ba0f27146102395780636352211e1461026957806370a08231146102a657610114565b806301ffc9a71461011957806306fdde0314610156578063081812fc14610181578063095ea7b3146101be575b600080fd5b34801561012557600080fd5b50610140600480360381019061013b9190612117565b610497565b60405161014d919061215f565b60405180910390f35b34801561016257600080fd5b5061016b610579565b6040516101789190612213565b60405180910390f35b34801561018d57600080fd5b506101a860048036038101906101a3919061226b565b61060b565b6040516101b591906122d9565b60405180910390f35b3480156101ca57600080fd5b506101e560048036038101906101e09190612320565b610690565b005b3480156101f357600080fd5b5061020e60048036038101906102099190612360565b6107a8565b005b34801561021c57600080fd5b5061023760048036038101906102329190612360565b610808565b005b610253600480360381019061024e91906123f1565b610828565b604051610260919061242d565b60405180910390f35b34801561027557600080fd5b50610290600480360381019061028b919061226b565b6109b8565b60405161029d91906122d9565b60405180910390f35b3480156102b257600080fd5b506102cd60048036038101906102c89190612448565b610a6a565b6040516102da919061242d565b60405180910390f35b3480156102ef57600080fd5b506102f8610b22565b005b34801561030657600080fd5b5061030f610baa565b60405161031c91906122d9565b60405180910390f35b34801561033157600080fd5b5061033a610bd4565b6040516103479190612213565b60405180910390f35b34801561035c57600080fd5b50610377600480360381019061037291906124a1565b610c66565b005b34801561038557600080fd5b506103a0600480360381019061039b9190612616565b610c7c565b005b3480156103ae57600080fd5b506103c960048036038101906103c49190612699565b610cde565b005b3480156103d757600080fd5b506103f260048036038101906103ed919061226b565b610e13565b6040516103ff9190612213565b60405180910390f35b34801561041457600080fd5b5061042f600480360381019061042a919061274c565b610f65565b005b34801561043d57600080fd5b5061045860048036038101906104539190612799565b611062565b604051610465919061215f565b60405180910390f35b34801561047a57600080fd5b5061049560048036038101906104909190612448565b6110f6565b005b60007f80ac58cd000000000000000000000000000000000000000000000000000000007bffffffffffffffffffffffffffffffffffffffffffffffffffffffff1916827bffffffffffffffffffffffffffffffffffffffffffffffffffffffff1916148061056257507f5b5e139f000000000000000000000000000000000000000000000000000000007bffffffffffffffffffffffffffffffffffffffffffffffffffffffff1916827bffffffffffffffffffffffffffffffffffffffffffffffffffffffff1916145b806105725750610571826111ee565b5b9050919050565b60606000805461058890612808565b80601f01602080910402602001604051908101604052809291908181526020018280546105b490612808565b80156106015780601f106105d657610100808354040283529160200191610601565b820191906000526020600020905b8154815290600101906020018083116105e457829003601f168201915b5050505050905090565b600061061682611258565b610655576040517f08c379a000000000000000000000000000000000000000000000000000000000815260040161064c906128ac565b60405180910390fd5b6004600083815260200190815260200160002060009054906101000a900473ffffffffffffffffffffffffffffffffffffffff169050919050565b600061069b826109b8565b90508073ffffffffffffffffffffffffffffffffffffffff168373ffffffffffffffffffffffffffffffffffffffff16141561070c576040517f08c379a00000000000000000000000000000000000000000000000000000000081526004016107039061293e565b60405180910390fd5b8073ffffffffffffffffffffffffffffffffffffffff1661072b6112c4565b73ffffffffffffffffffffffffffffffffffffffff16148061075a5750610759816107546112c4565b611062565b5b610799576040517f08c379a0000000000000000000000000000000000000000000000000000000008152600401610790906129d0565b60405180910390fd5b6107a383836112cc565b505050565b6107b96107b36112c4565b82611385565b6107f8576040517f08c379a00000000000000000000000000000000000000000000000000000000081526004016107ef90612a62565b60405180910390fd5b610803838383611463565b505050565b61082383838360405180602001604052806000815250610c7c565b505050565b600061083460086116bf565b600061084060086116d5565b90506000600960009054906101000a900473ffffffffffffffffffffffffffffffffffffffff1673ffffffffffffffffffffffffffffffffffffffff163460405161088a90612ab3565b60006040518083038185875af1925050503d80600081146108c7576040519150601f19603f3d011682016040523d82523d6000602084013e6108cc565b606091505b5050905080610910576040517f08c379a000000000000000000000000000000000000000000000000000000000815260040161090790612b14565b60405180910390fd5b61091a84836116e3565b6109ae82600a805461092b90612808565b80601f016020809104026020016040519081016040528092919081815260200182805461095790612808565b80156109a45780601f10610979576101008083540402835291602001916109a4565b820191906000526020600020905b81548152906001019060200180831161098757829003601f168201915b50505050506118b1565b8192505050919050565b6000806002600084815260200190815260200160002060009054906101000a900473ffffffffffffffffffffffffffffffffffffffff169050600073ffffffffffffffffffffffffffffffffffffffff168173ffffffffffffffffffffffffffffffffffffffff161415610a61576040517f08c379a0000000000000000000000000000000000000000000000000000000008152600401610a5890612ba6565b60405180910390fd5b80915050919050565b60008073ffffffffffffffffffffffffffffffffffffffff168273ffffffffffffffffffffffffffffffffffffffff161415610adb576040517f08c379a0000000000000000000000000000000000000000000000000000000008152600401610ad290612c38565b60405180910390fd5b600360008373ffffffffffffffffffffffffffffffffffffffff1673ffffffffffffffffffffffffffffffffffffffff168152602001908152602001600020549050919050565b610b2a6112c4565b73ffffffffffffffffffffffffffffffffffffffff16610b48610baa565b73ffffffffffffffffffffffffffffffffffffffff1614610b9e576040517f08c379a0000000000000000000000000000000000000000000000000000000008152600401610b9590612ca4565b60405180910390fd5b610ba86000611925565b565b6000600760009054906101000a900473ffffffffffffffffffffffffffffffffffffffff16905090565b606060018054610be390612808565b80601f0160208091040260200160405190810160405280929190818152602001828054610c0f90612808565b8015610c5c5780601f10610c3157610100808354040283529160200191610c5c565b820191906000526020600020905b815481529060010190602001808311610c3f57829003601f168201915b5050505050905090565b610c78610c716112c4565b83836119eb565b5050565b610c8d610c876112c4565b83611385565b610ccc576040517f08c379a0000000000000000000000000000000000000000000000000000000008152600401610cc390612a62565b60405180910390fd5b610cd884848484611b58565b50505050565b610ce66112c4565b73ffffffffffffffffffffffffffffffffffffffff16610d04610baa565b73ffffffffffffffffffffffffffffffffffffffff1614610d5a576040517f08c379a0000000000000000000000000000000000000000000000000000000008152600401610d5190612ca4565b60405180910390fd5b81600b60008573ffffffffffffffffffffffffffffffffffffffff1673ffffffffffffffffffffffffffffffffffffffff16815260200190815260200160002060000160006101000a81548160ff02191690831515021790555080600b60008573ffffffffffffffffffffffffffffffffffffffff1673ffffffffffffffffffffffffffffffffffffffff16815260200190815260200160002060000160016101000a81548160ff021916908315150217905550505050565b6060610e1e82611258565b610e5d576040517f08c379a0000000000000000000000000000000000000000000000000000000008152600401610e5490612d36565b60405180910390fd5b6000600660008481526020019081526020016000208054610e7d90612808565b80601f0160208091040260200160405190810160405280929190818152602001828054610ea990612808565b8015610ef65780601f10610ecb57610100808354040283529160200191610ef6565b820191906000526020600020905b815481529060010190602001808311610ed957829003601f168201915b505050505090506000610f07611bb4565b9050600081511415610f1d578192505050610f60565b600082511115610f52578082604051602001610f3a929190612d92565b60405160208183030381529060405292505050610f60565b610f5b84611bcb565b925050505b919050565b600b60003373ffffffffffffffffffffffffffffffffffffffff1673ffffffffffffffffffffffffffffffffffffffff16815260200190815260200160002060000160009054906101000a900460ff16801561100d5750600b60003373ffffffffffffffffffffffffffffffffffffffff1673ffffffffffffffffffffffffffffffffffffffff16815260200190815260200160002060000160019054906101000a900460ff165b61104c576040517f08c379a000000000000000000000000000000000000000000000000000000000815260040161104390612e02565b60405180910390fd5b8181600a919061105d929190611f82565b505050565b6000600560008473ffffffffffffffffffffffffffffffffffffffff1673ffffffffffffffffffffffffffffffffffffffff16815260200190815260200160002060008373ffffffffffffffffffffffffffffffffffffffff1673ffffffffffffffffffffffffffffffffffffffff16815260200190815260200160002060009054906101000a900460ff16905092915050565b6110fe6112c4565b73ffffffffffffffffffffffffffffffffffffffff1661111c610baa565b73ffffffffffffffffffffffffffffffffffffffff1614611172576040517f08c379a000000000000000000000000000000000000000000000000000000000815260040161116990612ca4565b60405180910390fd5b600073ffffffffffffffffffffffffffffffffffffffff168173ffffffffffffffffffffffffffffffffffffffff1614156111e2576040517f08c379a00000000000000000000000000000000000000000000000000000000081526004016111d990612e94565b60405180910390fd5b6111eb81611925565b50565b60007f01ffc9a7000000000000000000000000000000000000000000000000000000007bffffffffffffffffffffffffffffffffffffffffffffffffffffffff1916827bffffffffffffffffffffffffffffffffffffffffffffffffffffffff1916149050919050565b60008073ffffffffffffffffffffffffffffffffffffffff166002600084815260200190815260200160002060009054906101000a900473ffffffffffffffffffffffffffffffffffffffff1673ffffffffffffffffffffffffffffffffffffffff1614159050919050565b600033905090565b816004600083815260200190815260200160002060006101000a81548173ffffffffffffffffffffffffffffffffffffffff021916908373ffffffffffffffffffffffffffffffffffffffff160217905550808273ffffffffffffffffffffffffffffffffffffffff1661133f836109b8565b73ffffffffffffffffffffffffffffffffffffffff167f8c5be1e5ebec7d5bd14f71427d1e84f3dd0314c0f7b2291e5b200ac8c7c3b92560405160405180910390a45050565b600061139082611258565b6113cf576040517f08c379a00000000000000000000000000000000000000000000000000000000081526004016113c690612f26565b60405180910390fd5b60006113da836109b8565b90508073ffffffffffffffffffffffffffffffffffffffff168473ffffffffffffffffffffffffffffffffffffffff16148061144957508373ffffffffffffffffffffffffffffffffffffffff166114318461060b565b73ffffffffffffffffffffffffffffffffffffffff16145b8061145a57506114598185611062565b5b91505092915050565b8273ffffffffffffffffffffffffffffffffffffffff16611483826109b8565b73ffffffffffffffffffffffffffffffffffffffff16146114d9576040517f08c379a00000000000000000000000000000000000000000000000000000000081526004016114d090612fb8565b60405180910390fd5b600073ffffffffffffffffffffffffffffffffffffffff168273ffffffffffffffffffffffffffffffffffffffff161415611549576040517f08c379a00000000000000000000000000000000000000000000000000000000081526004016115409061304a565b60405180910390fd5b611554838383611c72565b61155f6000826112cc565b6001600360008573ffffffffffffffffffffffffffffffffffffffff1673ffffffffffffffffffffffffffffffffffffffff16815260200190815260200160002060008282546115af9190613099565b925050819055506001600360008473ffffffffffffffffffffffffffffffffffffffff1673ffffffffffffffffffffffffffffffffffffffff168152602001908152602001600020600082825461160691906130cd565b92505081905550816002600083815260200190815260200160002060006101000a81548173ffffffffffffffffffffffffffffffffffffffff021916908373ffffffffffffffffffffffffffffffffffffffff160217905550808273ffffffffffffffffffffffffffffffffffffffff168473ffffffffffffffffffffffffffffffffffffffff167fddf252ad1be2c89b69c2b068fc378daa952ba7f163c4a11628f55a4df523b3ef60405160405180910390a4505050565b6001816000016000828254019250508190555050565b600081600001549050919050565b600073ffffffffffffffffffffffffffffffffffffffff168273ffffffffffffffffffffffffffffffffffffffff161415611753576040517f08c379a000000000000000000000000000000000000000000000000000000000815260040161174a9061316f565b60405180910390fd5b61175c81611258565b1561179c576040517f08c379a0000000000000000000000000000000000000000000000000000000008152600401611793906131db565b60405180910390fd5b6117a860008383611c72565b6001600360008473ffffffffffffffffffffffffffffffffffffffff1673ffffffffffffffffffffffffffffffffffffffff16815260200190815260200160002060008282546117f891906130cd565b92505081905550816002600083815260200190815260200160002060006101000a81548173ffffffffffffffffffffffffffffffffffffffff021916908373ffffffffffffffffffffffffffffffffffffffff160217905550808273ffffffffffffffffffffffffffffffffffffffff16600073ffffffffffffffffffffffffffffffffffffffff167fddf252ad1be2c89b69c2b068fc378daa952ba7f163c4a11628f55a4df523b3ef60405160405180910390a45050565b6118ba82611258565b6118f9576040517f08c379a00000000000000000000000000000000000000000000000000000000081526004016118f09061326d565b60405180910390fd5b80600660008481526020019081526020016000209080519060200190611920929190612008565b505050565b6000600760009054906101000a900473ffffffffffffffffffffffffffffffffffffffff16905081600760006101000a81548173ffffffffffffffffffffffffffffffffffffffff021916908373ffffffffffffffffffffffffffffffffffffffff1602179055508173ffffffffffffffffffffffffffffffffffffffff168173ffffffffffffffffffffffffffffffffffffffff167f8be0079c531659141344cd1fd0a4f28419497f9722a3daafe3b4186f6b6457e060405160405180910390a35050565b8173ffffffffffffffffffffffffffffffffffffffff168373ffffffffffffffffffffffffffffffffffffffff161415611a5a576040517f08c379a0000000000000000000000000000000000000000000000000000000008152600401611a51906132d9565b60405180910390fd5b80600560008573ffffffffffffffffffffffffffffffffffffffff1673ffffffffffffffffffffffffffffffffffffffff16815260200190815260200160002060008473ffffffffffffffffffffffffffffffffffffffff1673ffffffffffffffffffffffffffffffffffffffff16815260200190815260200160002060006101000a81548160ff0219169083151502179055508173ffffffffffffffffffffffffffffffffffffffff168373ffffffffffffffffffffffffffffffffffffffff167f17307eab39ab6107e8899845ad3d59bd9653f200f220920489ca2b5937696c3183604051611b4b919061215f565b60405180910390a3505050565b611b63848484611463565b611b6f84848484611c77565b611bae576040517f08c379a0000000000000000000000000000000000000000000000000000000008152600401611ba59061336b565b60405180910390fd5b50505050565b606060405180602001604052806000815250905090565b6060611bd682611258565b611c15576040517f08c379a0000000000000000000000000000000000000000000000000000000008152600401611c0c906133fd565b60405180910390fd5b6000611c1f611bb4565b90506000815111611c3f5760405180602001604052806000815250611c6a565b80611c4984611e0e565b604051602001611c5a929190612d92565b6040516020818303038152906040525b915050919050565b505050565b6000611c988473ffffffffffffffffffffffffffffffffffffffff16611f6f565b15611e01578373ffffffffffffffffffffffffffffffffffffffff1663150b7a02611cc16112c4565b8786866040518563ffffffff1660e01b8152600401611ce39493929190613472565b602060405180830381600087803b158015611cfd57600080fd5b505af1925050508015611d2e57506040513d601f19601f82011682018060405250810190611d2b91906134d3565b60015b611db1573d8060008114611d5e576040519150601f19603f3d011682016040523d82523d6000602084013e611d63565b606091505b50600081511415611da9576040517f08c379a0000000000000000000000000000000000000000000000000000000008152600401611da09061336b565b60405180910390fd5b805181602001fd5b63150b7a0260e01b7bffffffffffffffffffffffffffffffffffffffffffffffffffffffff1916817bffffffffffffffffffffffffffffffffffffffffffffffffffffffff191614915050611e06565b600190505b949350505050565b60606000821415611e56576040518060400160405280600181526020017f30000000000000000000000000000000000000000000000000000000000000008152509050611f6a565b600082905060005b60008214611e88578080611e7190613500565b915050600a82611e819190613578565b9150611e5e565b60008167ffffffffffffffff811115611ea457611ea36124eb565b5b6040519080825280601f01601f191660200182016040528015611ed65781602001600182028036833780820191505090505b5090505b60008514611f6357600182611eef9190613099565b9150600a85611efe91906135a9565b6030611f0a91906130cd565b60f81b818381518110611f2057611f1f6135da565b5b60200101907effffffffffffffffffffffffffffffffffffffffffffffffffffffffffffff1916908160001a905350600a85611f5c9190613578565b9450611eda565b8093505050505b919050565b600080823b905060008111915050919050565b828054611f8e90612808565b90600052602060002090601f016020900481019282611fb05760008555611ff7565b82601f10611fc957803560ff1916838001178555611ff7565b82800160010185558215611ff7579182015b82811115611ff6578235825591602001919060010190611fdb565b5b509050612004919061208e565b5090565b82805461201490612808565b90600052602060002090601f016020900481019282612036576000855561207d565b82601f1061204f57805160ff191683800117855561207d565b8280016001018555821561207d579182015b8281111561207c578251825591602001919060010190612061565b5b50905061208a919061208e565b5090565b5b808211156120a757600081600090555060010161208f565b5090565b6000604051905090565b600080fd5b600080fd5b60007fffffffff0000000000000000000000000000000000000000000000000000000082169050919050565b6120f4816120bf565b81146120ff57600080fd5b50565b600081359050612111816120eb565b92915050565b60006020828403121561212d5761212c6120b5565b5b600061213b84828501612102565b91505092915050565b60008115159050919050565b61215981612144565b82525050565b60006020820190506121746000830184612150565b92915050565b600081519050919050565b600082825260208201905092915050565b60005b838110156121b4578082015181840152602081019050612199565b838111156121c3576000848401525b50505050565b6000601f19601f8301169050919050565b60006121e58261217a565b6121ef8185612185565b93506121ff818560208601612196565b612208816121c9565b840191505092915050565b6000602082019050818103600083015261222d81846121da565b905092915050565b6000819050919050565b61224881612235565b811461225357600080fd5b50565b6000813590506122658161223f565b92915050565b600060208284031215612281576122806120b5565b5b600061228f84828501612256565b91505092915050565b600073ffffffffffffffffffffffffffffffffffffffff82169050919050565b60006122c382612298565b9050919050565b6122d3816122b8565b82525050565b60006020820190506122ee60008301846122ca565b92915050565b6122fd816122b8565b811461230857600080fd5b50565b60008135905061231a816122f4565b92915050565b60008060408385031215612337576123366120b5565b5b60006123458582860161230b565b925050602061235685828601612256565b9150509250929050565b600080600060608486031215612379576123786120b5565b5b60006123878682870161230b565b93505060206123988682870161230b565b92505060406123a986828701612256565b9150509250925092565b60006123be82612298565b9050919050565b6123ce816123b3565b81146123d957600080fd5b50565b6000813590506123eb816123c5565b92915050565b600060208284031215612407576124066120b5565b5b6000612415848285016123dc565b91505092915050565b61242781612235565b82525050565b6000602082019050612442600083018461241e565b92915050565b60006020828403121561245e5761245d6120b5565b5b600061246c8482850161230b565b91505092915050565b61247e81612144565b811461248957600080fd5b50565b60008135905061249b81612475565b92915050565b600080604083850312156124b8576124b76120b5565b5b60006124c68582860161230b565b92505060206124d78582860161248c565b9150509250929050565b600080fd5b600080fd5b7f4e487b7100000000000000000000000000000000000000000000000000000000600052604160045260246000fd5b612523826121c9565b810181811067ffffffffffffffff82111715612542576125416124eb565b5b80604052505050565b60006125556120ab565b9050612561828261251a565b919050565b600067ffffffffffffffff821115612581576125806124eb565b5b61258a826121c9565b9050602081019050919050565b82818337600083830152505050565b60006125b96125b484612566565b61254b565b9050828152602081018484840111156125d5576125d46124e6565b5b6125e0848285612597565b509392505050565b600082601f8301126125fd576125fc6124e1565b5b813561260d8482602086016125a6565b91505092915050565b600080600080608085870312156126305761262f6120b5565b5b600061263e8782880161230b565b945050602061264f8782880161230b565b935050604061266087828801612256565b925050606085013567ffffffffffffffff811115612681576126806120ba565b5b61268d878288016125e8565b91505092959194509250565b6000806000606084860312156126b2576126b16120b5565b5b60006126c08682870161230b565b93505060206126d18682870161248c565b92505060406126e28682870161248c565b9150509250925092565b600080fd5b600080fd5b60008083601f84011261270c5761270b6124e1565b5b8235905067ffffffffffffffff811115612729576127286126ec565b5b602083019150836001820283011115612745576127446126f1565b5b9250929050565b60008060208385031215612763576127626120b5565b5b600083013567ffffffffffffffff811115612781576127806120ba565b5b61278d858286016126f6565b92509250509250929050565b600080604083850312156127b0576127af6120b5565b5b60006127be8582860161230b565b92505060206127cf8582860161230b565b9150509250929050565b7f4e487b7100000000000000000000000000000000000000000000000000000000600052602260045260246000fd5b6000600282049050600182168061282057607f821691505b60208210811415612834576128336127d9565b5b50919050565b7f4552433732313a20617070726f76656420717565727920666f72206e6f6e657860008201527f697374656e7420746f6b656e0000000000000000000000000000000000000000602082015250565b6000612896602c83612185565b91506128a18261283a565b604082019050919050565b600060208201905081810360008301526128c581612889565b9050919050565b7f4552433732313a20617070726f76616c20746f2063757272656e74206f776e6560008201527f7200000000000000000000000000000000000000000000000000000000000000602082015250565b6000612928602183612185565b9150612933826128cc565b604082019050919050565b600060208201905081810360008301526129578161291b565b9050919050565b7f4552433732313a20617070726f76652063616c6c6572206973206e6f74206f7760008201527f6e6572206e6f7220617070726f76656420666f7220616c6c0000000000000000602082015250565b60006129ba603883612185565b91506129c58261295e565b604082019050919050565b600060208201905081810360008301526129e9816129ad565b9050919050565b7f4552433732313a207472616e736665722063616c6c6572206973206e6f74206f60008201527f776e6572206e6f7220617070726f766564000000000000000000000000000000602082015250565b6000612a4c603183612185565b9150612a57826129f0565b604082019050919050565b60006020820190508181036000830152612a7b81612a3f565b9050919050565b600081905092915050565b50565b6000612a9d600083612a82565b9150612aa882612a8d565b600082019050919050565b6000612abe82612a90565b9150819050919050565b7f4661696c656420746f2073656e64206d6f6e6579000000000000000000000000600082015250565b6000612afe601483612185565b9150612b0982612ac8565b602082019050919050565b60006020820190508181036000830152612b2d81612af1565b9050919050565b7f4552433732313a206f776e657220717565727920666f72206e6f6e657869737460008201527f656e7420746f6b656e0000000000000000000000000000000000000000000000602082015250565b6000612b90602983612185565b9150612b9b82612b34565b604082019050919050565b60006020820190508181036000830152612bbf81612b83565b9050919050565b7f4552433732313a2062616c616e636520717565727920666f7220746865207a6560008201527f726f206164647265737300000000000000000000000000000000000000000000602082015250565b6000612c22602a83612185565b9150612c2d82612bc6565b604082019050919050565b60006020820190508181036000830152612c5181612c15565b9050919050565b7f4f776e61626c653a2063616c6c6572206973206e6f7420746865206f776e6572600082015250565b6000612c8e602083612185565b9150612c9982612c58565b602082019050919050565b60006020820190508181036000830152612cbd81612c81565b9050919050565b7f45524337323155524953746f726167653a2055524920717565727920666f722060008201527f6e6f6e6578697374656e7420746f6b656e000000000000000000000000000000602082015250565b6000612d20603183612185565b9150612d2b82612cc4565b604082019050919050565b60006020820190508181036000830152612d4f81612d13565b9050919050565b600081905092915050565b6000612d6c8261217a565b612d768185612d56565b9350612d86818560208601612196565b80840191505092915050565b6000612d9e8285612d61565b9150612daa8284612d61565b91508190509392505050565b7f4e6f7420616374697665206d696e746572000000000000000000000000000000600082015250565b6000612dec601183612185565b9150612df782612db6565b602082019050919050565b60006020820190508181036000830152612e1b81612ddf565b9050919050565b7f4f776e61626c653a206e6577206f776e657220697320746865207a65726f206160008201527f6464726573730000000000000000000000000000000000000000000000000000602082015250565b6000612e7e602683612185565b9150612e8982612e22565b604082019050919050565b60006020820190508181036000830152612ead81612e71565b9050919050565b7f4552433732313a206f70657261746f7220717565727920666f72206e6f6e657860008201527f697374656e7420746f6b656e0000000000000000000000000000000000000000602082015250565b6000612f10602c83612185565b9150612f1b82612eb4565b604082019050919050565b60006020820190508181036000830152612f3f81612f03565b9050919050565b7f4552433732313a207472616e73666572206f6620746f6b656e2074686174206960008201527f73206e6f74206f776e0000000000000000000000000000000000000000000000602082015250565b6000612fa2602983612185565b9150612fad82612f46565b604082019050919050565b60006020820190508181036000830152612fd181612f95565b9050919050565b7f4552433732313a207472616e7366657220746f20746865207a65726f2061646460008201527f7265737300000000000000000000000000000000000000000000000000000000602082015250565b6000613034602483612185565b915061303f82612fd8565b604082019050919050565b6000602082019050818103600083015261306381613027565b9050919050565b7f4e487b7100000000000000000000000000000000000000000000000000000000600052601160045260246000fd5b60006130a482612235565b91506130af83612235565b9250828210156130c2576130c161306a565b5b828203905092915050565b60006130d882612235565b91506130e383612235565b9250827fffffffffffffffffffffffffffffffffffffffffffffffffffffffffffffffff038211156131185761311761306a565b5b828201905092915050565b7f4552433732313a206d696e7420746f20746865207a65726f2061646472657373600082015250565b6000613159602083612185565b915061316482613123565b602082019050919050565b600060208201905081810360008301526131888161314c565b9050919050565b7f4552433732313a20746f6b656e20616c7265616479206d696e74656400000000600082015250565b60006131c5601c83612185565b91506131d08261318f565b602082019050919050565b600060208201905081810360008301526131f4816131b8565b9050919050565b7f45524337323155524953746f726167653a2055524920736574206f66206e6f6e60008201527f6578697374656e7420746f6b656e000000000000000000000000000000000000602082015250565b6000613257602e83612185565b9150613262826131fb565b604082019050919050565b600060208201905081810360008301526132868161324a565b9050919050565b7f4552433732313a20617070726f766520746f2063616c6c657200000000000000600082015250565b60006132c3601983612185565b91506132ce8261328d565b602082019050919050565b600060208201905081810360008301526132f2816132b6565b9050919050565b7f4552433732313a207472616e7366657220746f206e6f6e20455243373231526560008201527f63656976657220696d706c656d656e7465720000000000000000000000000000602082015250565b6000613355603283612185565b9150613360826132f9565b604082019050919050565b6000602082019050818103600083015261338481613348565b9050919050565b7f4552433732314d657461646174613a2055524920717565727920666f72206e6f60008201527f6e6578697374656e7420746f6b656e0000000000000000000000000000000000602082015250565b60006133e7602f83612185565b91506133f28261338b565b604082019050919050565b60006020820190508181036000830152613416816133da565b9050919050565b600081519050919050565b600082825260208201905092915050565b60006134448261341d565b61344e8185613428565b935061345e818560208601612196565b613467816121c9565b840191505092915050565b600060808201905061348760008301876122ca565b61349460208301866122ca565b6134a1604083018561241e565b81810360608301526134b38184613439565b905095945050505050565b6000815190506134cd816120eb565b92915050565b6000602082840312156134e9576134e86120b5565b5b60006134f7848285016134be565b91505092915050565b600061350b82612235565b91507fffffffffffffffffffffffffffffffffffffffffffffffffffffffffffffffff82141561353e5761353d61306a565b5b600182019050919050565b7f4e487b7100000000000000000000000000000000000000000000000000000000600052601260045260246000fd5b600061358382612235565b915061358e83612235565b92508261359e5761359d613549565b5b828204905092915050565b60006135b482612235565b91506135bf83612235565b9250826135cf576135ce613549565b5b828206905092915050565b7f4e487b7100000000000000000000000000000000000000000000000000000000600052603260045260246000fdfea2646970667358221220c5787fdba15df176e63fee629258cee423fa6d756409554cafbbeda302e031d464736f6c63430008090033",
  "linkReferences": {},
  "deployedLinkReferences": {}
}