{
  "_format": "hh-sol-artifact-1",
  "contractName": "MyNFT",
  "sourceName": "src/MyNFT.sol",
  "abi": [
    {
      "inputs": [
        {
          "internalType": "uint256",
          "name": "_price",
          "type": "uint256"
        },
        {
          "internalType": "address",
          "name": "treasury",
          "type": "address"
        },
        {
          "internalType": "string",
          "name": "_uri",
          "type": "string"
        }
      ],
      "stateMutability": "nonpayable",
      "type": "constructor"
    },
    {
      "anonymous": false,
      "inputs": [
        {
          "indexed": true,
          "internalType": "address",
          "name": "owner",
          "type": "address"
        },
        {
          "indexed": true,
          "internalType": "address",
          "name": "approved",
          "type": "address"
        },
        {
          "indexed": true,
          "internalType": "uint256",
          "name": "tokenId",
          "type": "uint256"
        }
      ],
      "name": "Approval",
      "type": "event"
    },
    {
      "anonymous": false,
      "inputs": [
        {
          "indexed": true,
          "internalType": "address",
          "name": "owner",
          "type": "address"
        },
        {
          "indexed": true,
          "internalType": "address",
          "name": "operator",
          "type": "address"
        },
        {
          "indexed": false,
          "internalType": "bool",
          "name": "approved",
          "type": "bool"
        }
      ],
      "name": "ApprovalForAll",
      "type": "event"
    },
    {
      "anonymous": false,
      "inputs": [
        {
          "indexed": true,
          "internalType": "address",
          "name": "previousOwner",
          "type": "address"
        },
        {
          "indexed": true,
          "internalType": "address",
          "name": "newOwner",
          "type": "address"
        }
      ],
      "name": "OwnershipTransferred",
      "type": "event"
    },
    {
      "anonymous": false,
      "inputs": [
        {
          "indexed": true,
          "internalType": "address",
          "name": "from",
          "type": "address"
        },
        {
          "indexed": true,
          "internalType": "address",
          "name": "to",
          "type": "address"
        },
        {
          "indexed": true,
          "internalType": "uint256",
          "name": "tokenId",
          "type": "uint256"
        }
      ],
      "name": "Transfer",
      "type": "event"
    },
    {
      "inputs": [
        {
          "internalType": "address",
          "name": "minter",
          "type": "address"
        },
        {
          "internalType": "bool",
          "name": "hasMinterPermissions",
          "type": "bool"
        },
        {
          "internalType": "bool",
          "name": "isActiveMinter",
          "type": "bool"
        }
      ],
      "name": "addURIAdmin",
      "outputs": [],
      "stateMutability": "nonpayable",
      "type": "function"
    },
    {
      "inputs": [
        {
          "internalType": "address",
          "name": "to",
          "type": "address"
        },
        {
          "internalType": "uint256",
          "name": "tokenId",
          "type": "uint256"
        }
      ],
      "name": "approve",
      "outputs": [],
      "stateMutability": "nonpayable",
      "type": "function"
    },
    {
      "inputs": [
        {
          "internalType": "address",
          "name": "owner",
          "type": "address"
        }
      ],
      "name": "balanceOf",
      "outputs": [
        {
          "internalType": "uint256",
          "name": "",
          "type": "uint256"
        }
      ],
      "stateMutability": "view",
      "type": "function"
    },
    {
      "inputs": [
        {
          "internalType": "uint256",
          "name": "tokenId",
          "type": "uint256"
        }
      ],
      "name": "getApproved",
      "outputs": [
        {
          "internalType": "address",
          "name": "",
          "type": "address"
        }
      ],
      "stateMutability": "view",
      "type": "function"
    },
    {
      "inputs": [
        {
          "internalType": "address",
          "name": "owner",
          "type": "address"
        },
        {
          "internalType": "address",
          "name": "operator",
          "type": "address"
        }
      ],
      "name": "isApprovedForAll",
      "outputs": [
        {
          "internalType": "bool",
          "name": "",
          "type": "bool"
        }
      ],
      "stateMutability": "view",
      "type": "function"
    },
    {
      "inputs": [
        {
          "internalType": "address payable",
          "name": "recipient",
          "type": "address"
        }
      ],
      "name": "mintNFT",
      "outputs": [
        {
          "internalType": "uint256",
          "name": "",
          "type": "uint256"
        }
      ],
      "stateMutability": "payable",
      "type": "function"
    },
    {
      "inputs": [],
      "name": "name",
      "outputs": [
        {
          "internalType": "string",
          "name": "",
          "type": "string"
        }
      ],
      "stateMutability": "view",
      "type": "function"
    },
    {
      "inputs": [],
      "name": "owner",
      "outputs": [
        {
          "internalType": "address",
          "name": "",
          "type": "address"
        }
      ],
      "stateMutability": "view",
      "type": "function"
    },
    {
      "inputs": [
        {
          "internalType": "uint256",
          "name": "tokenId",
          "type": "uint256"
        }
      ],
      "name": "ownerOf",
      "outputs": [
        {
          "internalType": "address",
          "name": "",
          "type": "address"
        }
      ],
      "stateMutability": "view",
      "type": "function"
    },
    {
      "inputs": [],
      "name": "renounceOwnership",
      "outputs": [],
      "stateMutability": "nonpayable",
      "type": "function"
    },
    {
      "inputs": [
        {
          "internalType": "address",
          "name": "from",
          "type": "address"
        },
        {
          "internalType": "address",
          "name": "to",
          "type": "address"
        },
        {
          "internalType": "uint256",
          "name": "tokenId",
          "type": "uint256"
        }
      ],
      "name": "safeTransferFrom",
      "outputs": [],
      "stateMutability": "nonpayable",
      "type": "function"
    },
    {
      "inputs": [
        {
          "internalType": "address",
          "name": "from",
          "type": "address"
        },
        {
          "internalType": "address",
          "name": "to",
          "type": "address"
        },
        {
          "internalType": "uint256",
          "name": "tokenId",
          "type": "uint256"
        },
        {
          "internalType": "bytes",
          "name": "_data",
          "type": "bytes"
        }
      ],
      "name": "safeTransferFrom",
      "outputs": [],
      "stateMutability": "nonpayable",
      "type": "function"
    },
    {
      "inputs": [
        {
          "internalType": "address",
          "name": "operator",
          "type": "address"
        },
        {
          "internalType": "bool",
          "name": "approved",
          "type": "bool"
        }
      ],
      "name": "setApprovalForAll",
      "outputs": [],
      "stateMutability": "nonpayable",
      "type": "function"
    },
    {
      "inputs": [
        {
          "internalType": "string",
          "name": "_uri",
          "type": "string"
        }
      ],
      "name": "setTokenURI",
      "outputs": [],
      "stateMutability": "nonpayable",
      "type": "function"
    },
    {
      "inputs": [
        {
          "internalType": "bytes4",
          "name": "interfaceId",
          "type": "bytes4"
        }
      ],
      "name": "supportsInterface",
      "outputs": [
        {
          "internalType": "bool",
          "name": "",
          "type": "bool"
        }
      ],
      "stateMutability": "view",
      "type": "function"
    },
    {
      "inputs": [],
      "name": "symbol",
      "outputs": [
        {
          "internalType": "string",
          "name": "",
          "type": "string"
        }
      ],
      "stateMutability": "view",
      "type": "function"
    },
    {
      "inputs": [
        {
          "internalType": "uint256",
          "name": "tokenId",
          "type": "uint256"
        }
      ],
      "name": "tokenURI",
      "outputs": [
        {
          "internalType": "string",
          "name": "",
          "type": "string"
        }
      ],
      "stateMutability": "view",
      "type": "function"
    },
    {
      "inputs": [
        {
          "internalType": "address",
          "name": "from",
          "type": "address"
        },
        {
          "internalType": "address",
          "name": "to",
          "type": "address"
        },
        {
          "internalType": "uint256",
          "name": "tokenId",
          "type": "uint256"
        }
      ],
      "name": "transferFrom",
      "outputs": [],
      "stateMutability": "nonpayable",
      "type": "function"
    },
    {
      "inputs": [
        {
          "internalType": "address",
          "name": "newOwner",
          "type": "address"
        }
      ],
      "name": "transferOwnership",
      "outputs": [],
      "stateMutability": "nonpayable",
      "type": "function"
    }
  ],
  "bytecode": "0x60a06040523480156200001157600080fd5b5060405162003b3138038062003b31833981810160405281019062000037919062000436565b6040518060400160405280600581526020017f4d794e46540000000000000000000000000000000000000000000000000000008152506040518060400160405280600381526020017f4e465400000000000000000000000000000000000000000000000000000000008152508160009080519060200190620000bb929190620002e6565b508060019080519060200190620000d4929190620002e6565b505050620000f7620000eb6200021860201b60201c565b6200022060201b60201c565b826080818152505081600960006101000a81548173ffffffffffffffffffffffffffffffffffffffff021916908373ffffffffffffffffffffffffffffffffffffffff16021790555080600a908051906020019062000158929190620002e6565b506001600b60003373ffffffffffffffffffffffffffffffffffffffff1673ffffffffffffffffffffffffffffffffffffffff16815260200190815260200160002060000160006101000a81548160ff0219169083151502179055506001600b60003373ffffffffffffffffffffffffffffffffffffffff1673ffffffffffffffffffffffffffffffffffffffff16815260200190815260200160002060000160016101000a81548160ff02191690831515021790555050505062000648565b600033905090565b6000600760009054906101000a900473ffffffffffffffffffffffffffffffffffffffff16905081600760006101000a81548173ffffffffffffffffffffffffffffffffffffffff021916908373ffffffffffffffffffffffffffffffffffffffff1602179055508173ffffffffffffffffffffffffffffffffffffffff168173ffffffffffffffffffffffffffffffffffffffff167f8be0079c531659141344cd1fd0a4f28419497f9722a3daafe3b4186f6b6457e060405160405180910390a35050565b828054620002f49062000580565b90600052602060002090601f01602090048101928262000318576000855562000364565b82601f106200033357805160ff191683800117855562000364565b8280016001018555821562000364579182015b828111156200036357825182559160200191906001019062000346565b5b50905062000373919062000377565b5090565b5b808211156200039257600081600090555060010162000378565b5090565b6000620003ad620003a784620004d9565b620004a5565b905082815260208101848484011115620003c657600080fd5b620003d38482856200054a565b509392505050565b600081519050620003ec8162000614565b92915050565b600082601f8301126200040457600080fd5b81516200041684826020860162000396565b91505092915050565b60008151905062000430816200062e565b92915050565b6000806000606084860312156200044c57600080fd5b60006200045c868287016200041f565b93505060206200046f86828701620003db565b925050604084015167ffffffffffffffff8111156200048d57600080fd5b6200049b86828701620003f2565b9150509250925092565b6000604051905081810181811067ffffffffffffffff82111715620004cf57620004ce620005e5565b5b8060405250919050565b600067ffffffffffffffff821115620004f757620004f6620005e5565b5b601f19601f8301169050602081019050919050565b6000620005198262000520565b9050919050565b600073ffffffffffffffffffffffffffffffffffffffff82169050919050565b6000819050919050565b60005b838110156200056a5780820151818401526020810190506200054d565b838111156200057a576000848401525b50505050565b600060028204905060018216806200059957607f821691505b60208210811415620005b057620005af620005b6565b5b50919050565b7f4e487b7100000000000000000000000000000000000000000000000000000000600052602260045260246000fd5b7f4e487b7100000000000000000000000000000000000000000000000000000000600052604160045260246000fd5b6200061f816200050c565b81146200062b57600080fd5b50565b620006398162000540565b81146200064557600080fd5b50565b6080516134d062000661600039600050506134d06000f3fe6080604052600436106101145760003560e01c8063715018a6116100a0578063be8f939911610064578063be8f9399146103a2578063c87b56dd146103cb578063e0df5b6f14610408578063e985e9c514610431578063f2fde38b1461046e57610114565b8063715018a6146102e35780638da5cb5b146102fa57806395d89b4114610325578063a22cb46514610350578063b88d4fde1461037957610114565b806323b872dd116100e757806323b872dd146101e757806342842e0e1461021057806354ba0f27146102395780636352211e1461026957806370a08231146102a657610114565b806301ffc9a71461011957806306fdde0314610156578063081812fc14610181578063095ea7b3146101be575b600080fd5b34801561012557600080fd5b50610140600480360381019061013b9190612446565b610497565b60405161014d9190612da4565b60405180910390f35b34801561016257600080fd5b5061016b610579565b6040516101789190612dbf565b60405180910390f35b34801561018d57600080fd5b506101a860048036038101906101a391906124dd565b61060b565b6040516101b59190612d3d565b60405180910390f35b3480156101ca57600080fd5b506101e560048036038101906101e0919061240a565b610690565b005b3480156101f357600080fd5b5061020e600480360381019061020991906122b5565b6107a8565b005b34801561021c57600080fd5b50610237600480360381019061023291906122b5565b610808565b005b610253600480360381019061024e9190612250565b610828565b6040516102609190613061565b60405180910390f35b34801561027557600080fd5b50610290600480360381019061028b91906124dd565b6109b8565b60405161029d9190612d3d565b60405180910390f35b3480156102b257600080fd5b506102cd60048036038101906102c89190612227565b610a6a565b6040516102da9190613061565b60405180910390f35b3480156102ef57600080fd5b506102f8610b22565b005b34801561030657600080fd5b5061030f610baa565b60405161031c9190612d3d565b60405180910390f35b34801561033157600080fd5b5061033a610bd4565b6040516103479190612dbf565b60405180910390f35b34801561035c57600080fd5b506103776004803603810190610372919061237f565b610c66565b005b34801561038557600080fd5b506103a0600480360381019061039b9190612304565b610c7c565b005b3480156103ae57600080fd5b506103c960048036038101906103c491906123bb565b610cde565b005b3480156103d757600080fd5b506103f260048036038101906103ed91906124dd565b610e13565b6040516103ff9190612dbf565b60405180910390f35b34801561041457600080fd5b5061042f600480360381019061042a9190612498565b610f65565b005b34801561043d57600080fd5b5061045860048036038101906104539190612279565b611062565b6040516104659190612da4565b60405180910390f35b34801561047a57600080fd5b5061049560048036038101906104909190612227565b6110f6565b005b60007f80ac58cd000000000000000000000000000000000000000000000000000000007bffffffffffffffffffffffffffffffffffffffffffffffffffffffff1916827bffffffffffffffffffffffffffffffffffffffffffffffffffffffff1916148061056257507f5b5e139f000000000000000000000000000000000000000000000000000000007bffffffffffffffffffffffffffffffffffffffffffffffffffffffff1916827bffffffffffffffffffffffffffffffffffffffffffffffffffffffff1916145b806105725750610571826111ee565b5b9050919050565b606060008054610588906132ae565b80601f01602080910402602001604051908101604052809291908181526020018280546105b4906132ae565b80156106015780601f106105d657610100808354040283529160200191610601565b820191906000526020600020905b8154815290600101906020018083116105e457829003601f168201915b5050505050905090565b600061061682611258565b610655576040517f08c379a000000000000000000000000000000000000000000000000000000000815260040161064c90612fa1565b60405180910390fd5b6004600083815260200190815260200160002060009054906101000a900473ffffffffffffffffffffffffffffffffffffffff169050919050565b600061069b826109b8565b90508073ffffffffffffffffffffffffffffffffffffffff168373ffffffffffffffffffffffffffffffffffffffff16141561070c576040517f08c379a000000000000000000000000000000000000000000000000000000000815260040161070390613021565b60405180910390fd5b8073ffffffffffffffffffffffffffffffffffffffff1661072b6112c4565b73ffffffffffffffffffffffffffffffffffffffff16148061075a5750610759816107546112c4565b611062565b5b610799576040517f08c379a000000000000000000000000000000000000000000000000000000000815260040161079090612ee1565b60405180910390fd5b6107a383836112cc565b505050565b6107b96107b36112c4565b82611385565b6107f8576040517f08c379a00000000000000000000000000000000000000000000000000000000081526004016107ef90613041565b60405180910390fd5b610803838383611463565b505050565b61082383838360405180602001604052806000815250610c7c565b505050565b600061083460086116bf565b600061084060086116d5565b90506000600960009054906101000a900473ffffffffffffffffffffffffffffffffffffffff1673ffffffffffffffffffffffffffffffffffffffff163460405161088a90612d28565b60006040518083038185875af1925050503d80600081146108c7576040519150601f19603f3d011682016040523d82523d6000602084013e6108cc565b606091505b5050905080610910576040517f08c379a000000000000000000000000000000000000000000000000000000000815260040161090790612e61565b60405180910390fd5b61091a84836116e3565b6109ae82600a805461092b906132ae565b80601f0160208091040260200160405190810160405280929190818152602001828054610957906132ae565b80156109a45780601f10610979576101008083540402835291602001916109a4565b820191906000526020600020905b81548152906001019060200180831161098757829003601f168201915b50505050506118b1565b8192505050919050565b6000806002600084815260200190815260200160002060009054906101000a900473ffffffffffffffffffffffffffffffffffffffff169050600073ffffffffffffffffffffffffffffffffffffffff168173ffffffffffffffffffffffffffffffffffffffff161415610a61576040517f08c379a0000000000000000000000000000000000000000000000000000000008152600401610a5890612f21565b60405180910390fd5b80915050919050565b60008073ffffffffffffffffffffffffffffffffffffffff168273ffffffffffffffffffffffffffffffffffffffff161415610adb576040517f08c379a0000000000000000000000000000000000000000000000000000000008152600401610ad290612f01565b60405180910390fd5b600360008373ffffffffffffffffffffffffffffffffffffffff1673ffffffffffffffffffffffffffffffffffffffff168152602001908152602001600020549050919050565b610b2a6112c4565b73ffffffffffffffffffffffffffffffffffffffff16610b48610baa565b73ffffffffffffffffffffffffffffffffffffffff1614610b9e576040517f08c379a0000000000000000000000000000000000000000000000000000000008152600401610b9590612fc1565b60405180910390fd5b610ba86000611925565b565b6000600760009054906101000a900473ffffffffffffffffffffffffffffffffffffffff16905090565b606060018054610be3906132ae565b80601f0160208091040260200160405190810160405280929190818152602001828054610c0f906132ae565b8015610c5c5780601f10610c3157610100808354040283529160200191610c5c565b820191906000526020600020905b815481529060010190602001808311610c3f57829003601f168201915b5050505050905090565b610c78610c716112c4565b83836119eb565b5050565b610c8d610c876112c4565b83611385565b610ccc576040517f08c379a0000000000000000000000000000000000000000000000000000000008152600401610cc390613041565b60405180910390fd5b610cd884848484611b58565b50505050565b610ce66112c4565b73ffffffffffffffffffffffffffffffffffffffff16610d04610baa565b73ffffffffffffffffffffffffffffffffffffffff1614610d5a576040517f08c379a0000000000000000000000000000000000000000000000000000000008152600401610d5190612fc1565b60405180910390fd5b81600b60008573ffffffffffffffffffffffffffffffffffffffff1673ffffffffffffffffffffffffffffffffffffffff16815260200190815260200160002060000160006101000a81548160ff02191690831515021790555080600b60008573ffffffffffffffffffffffffffffffffffffffff1673ffffffffffffffffffffffffffffffffffffffff16815260200190815260200160002060000160016101000a81548160ff021916908315150217905550505050565b6060610e1e82611258565b610e5d576040517f08c379a0000000000000000000000000000000000000000000000000000000008152600401610e5490612f81565b60405180910390fd5b6000600660008481526020019081526020016000208054610e7d906132ae565b80601f0160208091040260200160405190810160405280929190818152602001828054610ea9906132ae565b8015610ef65780601f10610ecb57610100808354040283529160200191610ef6565b820191906000526020600020905b815481529060010190602001808311610ed957829003601f168201915b505050505090506000610f07611bb4565b9050600081511415610f1d578192505050610f60565b600082511115610f52578082604051602001610f3a929190612d04565b60405160208183030381529060405292505050610f60565b610f5b84611bcb565b925050505b919050565b600b60003373ffffffffffffffffffffffffffffffffffffffff1673ffffffffffffffffffffffffffffffffffffffff16815260200190815260200160002060000160009054906101000a900460ff16801561100d5750600b60003373ffffffffffffffffffffffffffffffffffffffff1673ffffffffffffffffffffffffffffffffffffffff16815260200190815260200160002060000160019054906101000a900460ff165b61104c576040517f08c379a000000000000000000000000000000000000000000000000000000000815260040161104390612de1565b60405180910390fd5b8181600a919061105d929190611fce565b505050565b6000600560008473ffffffffffffffffffffffffffffffffffffffff1673ffffffffffffffffffffffffffffffffffffffff16815260200190815260200160002060008373ffffffffffffffffffffffffffffffffffffffff1673ffffffffffffffffffffffffffffffffffffffff16815260200190815260200160002060009054906101000a900460ff16905092915050565b6110fe6112c4565b73ffffffffffffffffffffffffffffffffffffffff1661111c610baa565b73ffffffffffffffffffffffffffffffffffffffff1614611172576040517f08c379a000000000000000000000000000000000000000000000000000000000815260040161116990612fc1565b60405180910390fd5b600073ffffffffffffffffffffffffffffffffffffffff168173ffffffffffffffffffffffffffffffffffffffff1614156111e2576040517f08c379a00000000000000000000000000000000000000000000000000000000081526004016111d990612e21565b60405180910390fd5b6111eb81611925565b50565b60007f01ffc9a7000000000000000000000000000000000000000000000000000000007bffffffffffffffffffffffffffffffffffffffffffffffffffffffff1916827bffffffffffffffffffffffffffffffffffffffffffffffffffffffff1916149050919050565b60008073ffffffffffffffffffffffffffffffffffffffff166002600084815260200190815260200160002060009054906101000a900473ffffffffffffffffffffffffffffffffffffffff1673ffffffffffffffffffffffffffffffffffffffff1614159050919050565b600033905090565b816004600083815260200190815260200160002060006101000a81548173ffffffffffffffffffffffffffffffffffffffff021916908373ffffffffffffffffffffffffffffffffffffffff160217905550808273ffffffffffffffffffffffffffffffffffffffff1661133f836109b8565b73ffffffffffffffffffffffffffffffffffffffff167f8c5be1e5ebec7d5bd14f71427d1e84f3dd0314c0f7b2291e5b200ac8c7c3b92560405160405180910390a45050565b600061139082611258565b6113cf576040517f08c379a00000000000000000000000000000000000000000000000000000000081526004016113c690612ec1565b60405180910390fd5b60006113da836109b8565b90508073ffffffffffffffffffffffffffffffffffffffff168473ffffffffffffffffffffffffffffffffffffffff16148061144957508373ffffffffffffffffffffffffffffffffffffffff166114318461060b565b73ffffffffffffffffffffffffffffffffffffffff16145b8061145a57506114598185611062565b5b91505092915050565b8273ffffffffffffffffffffffffffffffffffffffff16611483826109b8565b73ffffffffffffffffffffffffffffffffffffffff16146114d9576040517f08c379a00000000000000000000000000000000000000000000000000000000081526004016114d090612fe1565b60405180910390fd5b600073ffffffffffffffffffffffffffffffffffffffff168273ffffffffffffffffffffffffffffffffffffffff161415611549576040517f08c379a000000000000000000000000000000000000000000000000000000000815260040161154090612e81565b60405180910390fd5b611554838383611c72565b61155f6000826112cc565b6001600360008573ffffffffffffffffffffffffffffffffffffffff1673ffffffffffffffffffffffffffffffffffffffff16815260200190815260200160002060008282546115af91906131b2565b925050819055506001600360008473ffffffffffffffffffffffffffffffffffffffff1673ffffffffffffffffffffffffffffffffffffffff1681526020019081526020016000206000828254611606919061312b565b92505081905550816002600083815260200190815260200160002060006101000a81548173ffffffffffffffffffffffffffffffffffffffff021916908373ffffffffffffffffffffffffffffffffffffffff160217905550808273ffffffffffffffffffffffffffffffffffffffff168473ffffffffffffffffffffffffffffffffffffffff167fddf252ad1be2c89b69c2b068fc378daa952ba7f163c4a11628f55a4df523b3ef60405160405180910390a4505050565b6001816000016000828254019250508190555050565b600081600001549050919050565b600073ffffffffffffffffffffffffffffffffffffffff168273ffffffffffffffffffffffffffffffffffffffff161415611753576040517f08c379a000000000000000000000000000000000000000000000000000000000815260040161174a90612f61565b60405180910390fd5b61175c81611258565b1561179c576040517f08c379a000000000000000000000000000000000000000000000000000000000815260040161179390612e41565b60405180910390fd5b6117a860008383611c72565b6001600360008473ffffffffffffffffffffffffffffffffffffffff1673ffffffffffffffffffffffffffffffffffffffff16815260200190815260200160002060008282546117f8919061312b565b92505081905550816002600083815260200190815260200160002060006101000a81548173ffffffffffffffffffffffffffffffffffffffff021916908373ffffffffffffffffffffffffffffffffffffffff160217905550808273ffffffffffffffffffffffffffffffffffffffff16600073ffffffffffffffffffffffffffffffffffffffff167fddf252ad1be2c89b69c2b068fc378daa952ba7f163c4a11628f55a4df523b3ef60405160405180910390a45050565b6118ba82611258565b6118f9576040517f08c379a00000000000000000000000000000000000000000000000000000000081526004016118f090612f41565b60405180910390fd5b80600660008481526020019081526020016000209080519060200190611920929190612054565b505050565b6000600760009054906101000a900473ffffffffffffffffffffffffffffffffffffffff16905081600760006101000a81548173ffffffffffffffffffffffffffffffffffffffff021916908373ffffffffffffffffffffffffffffffffffffffff1602179055508173ffffffffffffffffffffffffffffffffffffffff168173ffffffffffffffffffffffffffffffffffffffff167f8be0079c531659141344cd1fd0a4f28419497f9722a3daafe3b4186f6b6457e060405160405180910390a35050565b8173ffffffffffffffffffffffffffffffffffffffff168373ffffffffffffffffffffffffffffffffffffffff161415611a5a576040517f08c379a0000000000000000000000000000000000000000000000000000000008152600401611a5190612ea1565b60405180910390fd5b80600560008573ffffffffffffffffffffffffffffffffffffffff1673ffffffffffffffffffffffffffffffffffffffff16815260200190815260200160002060008473ffffffffffffffffffffffffffffffffffffffff1673ffffffffffffffffffffffffffffffffffffffff16815260200190815260200160002060006101000a81548160ff0219169083151502179055508173ffffffffffffffffffffffffffffffffffffffff168373ffffffffffffffffffffffffffffffffffffffff167f17307eab39ab6107e8899845ad3d59bd9653f200f220920489ca2b5937696c3183604051611b4b9190612da4565b60405180910390a3505050565b611b63848484611463565b611b6f84848484611c77565b611bae576040517f08c379a0000000000000000000000000000000000000000000000000000000008152600401611ba590612e01565b60405180910390fd5b50505050565b606060405180602001604052806000815250905090565b6060611bd682611258565b611c15576040517f08c379a0000000000000000000000000000000000000000000000000000000008152600401611c0c90613001565b60405180910390fd5b6000611c1f611bb4565b90506000815111611c3f5760405180602001604052806000815250611c6a565b80611c4984611e0e565b604051602001611c5a929190612d04565b6040516020818303038152906040525b915050919050565b505050565b6000611c988473ffffffffffffffffffffffffffffffffffffffff16611fbb565b15611e01578373ffffffffffffffffffffffffffffffffffffffff1663150b7a02611cc16112c4565b8786866040518563ffffffff1660e01b8152600401611ce39493929190612d58565b602060405180830381600087803b158015611cfd57600080fd5b505af1925050508015611d2e57506040513d601f19601f82011682018060405250810190611d2b919061246f565b60015b611db1573d8060008114611d5e576040519150601f19603f3d011682016040523d82523d6000602084013e611d63565b606091505b50600081511415611da9576040517f08c379a0000000000000000000000000000000000000000000000000000000008152600401611da090612e01565b60405180910390fd5b805181602001fd5b63150b7a0260e01b7bffffffffffffffffffffffffffffffffffffffffffffffffffffffff1916817bffffffffffffffffffffffffffffffffffffffffffffffffffffffff191614915050611e06565b600190505b949350505050565b60606000821415611e56576040518060400160405280600181526020017f30000000000000000000000000000000000000000000000000000000000000008152509050611fb6565b600082905060005b60008214611e88578080611e71906132e0565b915050600a82611e819190613181565b9150611e5e565b60008167ffffffffffffffff811115611eca577f4e487b7100000000000000000000000000000000000000000000000000000000600052604160045260246000fd5b6040519080825280601f01601f191660200182016040528015611efc5781602001600182028036833780820191505090505b5090505b60008514611faf57600182611f1591906131b2565b9150600a85611f249190613329565b6030611f30919061312b565b60f81b818381518110611f6c577f4e487b7100000000000000000000000000000000000000000000000000000000600052603260045260246000fd5b60200101907effffffffffffffffffffffffffffffffffffffffffffffffffffffffffffff1916908160001a905350600a85611fa89190613181565b9450611f00565b8093505050505b919050565b600080823b905060008111915050919050565b828054611fda906132ae565b90600052602060002090601f016020900481019282611ffc5760008555612043565b82601f1061201557803560ff1916838001178555612043565b82800160010185558215612043579182015b82811115612042578235825591602001919060010190612027565b5b50905061205091906120da565b5090565b828054612060906132ae565b90600052602060002090601f01602090048101928261208257600085556120c9565b82601f1061209b57805160ff19168380011785556120c9565b828001600101855582156120c9579182015b828111156120c85782518255916020019190600101906120ad565b5b5090506120d691906120da565b5090565b5b808211156120f35760008160009055506001016120db565b5090565b600061210a612105846130ad565b61307c565b90508281526020810184848401111561212257600080fd5b61212d84828561326c565b509392505050565b60008135905061214481613427565b92915050565b6000813590506121598161343e565b92915050565b60008135905061216e81613455565b92915050565b6000813590506121838161346c565b92915050565b6000815190506121988161346c565b92915050565b600082601f8301126121af57600080fd5b81356121bf8482602086016120f7565b91505092915050565b60008083601f8401126121da57600080fd5b8235905067ffffffffffffffff8111156121f357600080fd5b60208301915083600182028301111561220b57600080fd5b9250929050565b60008135905061222181613483565b92915050565b60006020828403121561223957600080fd5b600061224784828501612135565b91505092915050565b60006020828403121561226257600080fd5b60006122708482850161214a565b91505092915050565b6000806040838503121561228c57600080fd5b600061229a85828601612135565b92505060206122ab85828601612135565b9150509250929050565b6000806000606084860312156122ca57600080fd5b60006122d886828701612135565b93505060206122e986828701612135565b92505060406122fa86828701612212565b9150509250925092565b6000806000806080858703121561231a57600080fd5b600061232887828801612135565b945050602061233987828801612135565b935050604061234a87828801612212565b925050606085013567ffffffffffffffff81111561236757600080fd5b6123738782880161219e565b91505092959194509250565b6000806040838503121561239257600080fd5b60006123a085828601612135565b92505060206123b18582860161215f565b9150509250929050565b6000806000606084860312156123d057600080fd5b60006123de86828701612135565b93505060206123ef8682870161215f565b92505060406124008682870161215f565b9150509250925092565b6000806040838503121561241d57600080fd5b600061242b85828601612135565b925050602061243c85828601612212565b9150509250929050565b60006020828403121561245857600080fd5b600061246684828501612174565b91505092915050565b60006020828403121561248157600080fd5b600061248f84828501612189565b91505092915050565b600080602083850312156124ab57600080fd5b600083013567ffffffffffffffff8111156124c557600080fd5b6124d1858286016121c8565b92509250509250929050565b6000602082840312156124ef57600080fd5b60006124fd84828501612212565b91505092915050565b61250f816131e6565b82525050565b61251e8161320a565b82525050565b600061252f826130dd565b61253981856130f3565b935061254981856020860161327b565b61255281613416565b840191505092915050565b6000612568826130e8565b612572818561310f565b935061258281856020860161327b565b61258b81613416565b840191505092915050565b60006125a1826130e8565b6125ab8185613120565b93506125bb81856020860161327b565b80840191505092915050565b60006125d460118361310f565b91507f4e6f7420616374697665206d696e7465720000000000000000000000000000006000830152602082019050919050565b600061261460328361310f565b91507f4552433732313a207472616e7366657220746f206e6f6e20455243373231526560008301527f63656976657220696d706c656d656e74657200000000000000000000000000006020830152604082019050919050565b600061267a60268361310f565b91507f4f776e61626c653a206e6577206f776e657220697320746865207a65726f206160008301527f64647265737300000000000000000000000000000000000000000000000000006020830152604082019050919050565b60006126e0601c8361310f565b91507f4552433732313a20746f6b656e20616c7265616479206d696e746564000000006000830152602082019050919050565b600061272060148361310f565b91507f4661696c656420746f2073656e64206d6f6e65790000000000000000000000006000830152602082019050919050565b600061276060248361310f565b91507f4552433732313a207472616e7366657220746f20746865207a65726f2061646460008301527f72657373000000000000000000000000000000000000000000000000000000006020830152604082019050919050565b60006127c660198361310f565b91507f4552433732313a20617070726f766520746f2063616c6c6572000000000000006000830152602082019050919050565b6000612806602c8361310f565b91507f4552433732313a206f70657261746f7220717565727920666f72206e6f6e657860008301527f697374656e7420746f6b656e00000000000000000000000000000000000000006020830152604082019050919050565b600061286c60388361310f565b91507f4552433732313a20617070726f76652063616c6c6572206973206e6f74206f7760008301527f6e6572206e6f7220617070726f76656420666f7220616c6c00000000000000006020830152604082019050919050565b60006128d2602a8361310f565b91507f4552433732313a2062616c616e636520717565727920666f7220746865207a6560008301527f726f2061646472657373000000000000000000000000000000000000000000006020830152604082019050919050565b600061293860298361310f565b91507f4552433732313a206f776e657220717565727920666f72206e6f6e657869737460008301527f656e7420746f6b656e00000000000000000000000000000000000000000000006020830152604082019050919050565b600061299e602e8361310f565b91507f45524337323155524953746f726167653a2055524920736574206f66206e6f6e60008301527f6578697374656e7420746f6b656e0000000000000000000000000000000000006020830152604082019050919050565b6000612a0460208361310f565b91507f4552433732313a206d696e7420746f20746865207a65726f20616464726573736000830152602082019050919050565b6000612a4460318361310f565b91507f45524337323155524953746f726167653a2055524920717565727920666f722060008301527f6e6f6e6578697374656e7420746f6b656e0000000000000000000000000000006020830152604082019050919050565b6000612aaa602c8361310f565b91507f4552433732313a20617070726f76656420717565727920666f72206e6f6e657860008301527f697374656e7420746f6b656e00000000000000000000000000000000000000006020830152604082019050919050565b6000612b1060208361310f565b91507f4f776e61626c653a2063616c6c6572206973206e6f7420746865206f776e65726000830152602082019050919050565b6000612b5060298361310f565b91507f4552433732313a207472616e73666572206f6620746f6b656e2074686174206960008301527f73206e6f74206f776e00000000000000000000000000000000000000000000006020830152604082019050919050565b6000612bb6602f8361310f565b91507f4552433732314d657461646174613a2055524920717565727920666f72206e6f60008301527f6e6578697374656e7420746f6b656e00000000000000000000000000000000006020830152604082019050919050565b6000612c1c60218361310f565b91507f4552433732313a20617070726f76616c20746f2063757272656e74206f776e6560008301527f72000000000000000000000000000000000000000000000000000000000000006020830152604082019050919050565b6000612c82600083613104565b9150600082019050919050565b6000612c9c60318361310f565b91507f4552433732313a207472616e736665722063616c6c6572206973206e6f74206f60008301527f776e6572206e6f7220617070726f7665640000000000000000000000000000006020830152604082019050919050565b612cfe81613262565b82525050565b6000612d108285612596565b9150612d1c8284612596565b91508190509392505050565b6000612d3382612c75565b9150819050919050565b6000602082019050612d526000830184612506565b92915050565b6000608082019050612d6d6000830187612506565b612d7a6020830186612506565b612d876040830185612cf5565b8181036060830152612d998184612524565b905095945050505050565b6000602082019050612db96000830184612515565b92915050565b60006020820190508181036000830152612dd9818461255d565b905092915050565b60006020820190508181036000830152612dfa816125c7565b9050919050565b60006020820190508181036000830152612e1a81612607565b9050919050565b60006020820190508181036000830152612e3a8161266d565b9050919050565b60006020820190508181036000830152612e5a816126d3565b9050919050565b60006020820190508181036000830152612e7a81612713565b9050919050565b60006020820190508181036000830152612e9a81612753565b9050919050565b60006020820190508181036000830152612eba816127b9565b9050919050565b60006020820190508181036000830152612eda816127f9565b9050919050565b60006020820190508181036000830152612efa8161285f565b9050919050565b60006020820190508181036000830152612f1a816128c5565b9050919050565b60006020820190508181036000830152612f3a8161292b565b9050919050565b60006020820190508181036000830152612f5a81612991565b9050919050565b60006020820190508181036000830152612f7a816129f7565b9050919050565b60006020820190508181036000830152612f9a81612a37565b9050919050565b60006020820190508181036000830152612fba81612a9d565b9050919050565b60006020820190508181036000830152612fda81612b03565b9050919050565b60006020820190508181036000830152612ffa81612b43565b9050919050565b6000602082019050818103600083015261301a81612ba9565b9050919050565b6000602082019050818103600083015261303a81612c0f565b9050919050565b6000602082019050818103600083015261305a81612c8f565b9050919050565b60006020820190506130766000830184612cf5565b92915050565b6000604051905081810181811067ffffffffffffffff821117156130a3576130a26133e7565b5b8060405250919050565b600067ffffffffffffffff8211156130c8576130c76133e7565b5b601f19601f8301169050602081019050919050565b600081519050919050565b600081519050919050565b600082825260208201905092915050565b600081905092915050565b600082825260208201905092915050565b600081905092915050565b600061313682613262565b915061314183613262565b9250827fffffffffffffffffffffffffffffffffffffffffffffffffffffffffffffffff038211156131765761317561335a565b5b828201905092915050565b600061318c82613262565b915061319783613262565b9250826131a7576131a6613389565b5b828204905092915050565b60006131bd82613262565b91506131c883613262565b9250828210156131db576131da61335a565b5b828203905092915050565b60006131f182613242565b9050919050565b600061320382613242565b9050919050565b60008115159050919050565b60007fffffffff0000000000000000000000000000000000000000000000000000000082169050919050565b600073ffffffffffffffffffffffffffffffffffffffff82169050919050565b6000819050919050565b82818337600083830152505050565b60005b8381101561329957808201518184015260208101905061327e565b838111156132a8576000848401525b50505050565b600060028204905060018216806132c657607f821691505b602082108114156132da576132d96133b8565b5b50919050565b60006132eb82613262565b91507fffffffffffffffffffffffffffffffffffffffffffffffffffffffffffffffff82141561331e5761331d61335a565b5b600182019050919050565b600061333482613262565b915061333f83613262565b92508261334f5761334e613389565b5b828206905092915050565b7f4e487b7100000000000000000000000000000000000000000000000000000000600052601160045260246000fd5b7f4e487b7100000000000000000000000000000000000000000000000000000000600052601260045260246000fd5b7f4e487b7100000000000000000000000000000000000000000000000000000000600052602260045260246000fd5b7f4e487b7100000000000000000000000000000000000000000000000000000000600052604160045260246000fd5b6000601f19601f8301169050919050565b613430816131e6565b811461343b57600080fd5b50565b613447816131f8565b811461345257600080fd5b50565b61345e8161320a565b811461346957600080fd5b50565b61347581613216565b811461348057600080fd5b50565b61348c81613262565b811461349757600080fd5b5056fea2646970667358221220f8f397c292c6d40948a25b098940b5c363d9320dfa5d2f8607a048fbe7f6fa5d64736f6c63430008000033",
  "linkReferences": {},
  "deployedLinkReferences": {}
}